:0300000002018575
:0C018500787FE4F6D8FD7581EF0201CC14
:100211004154004154450041542B434E4D493D3218
:100221002C310041542B435343413D222B3836316D
:1002310033303130373130353030220041542B43A7
:100241004D47463D310041542B434D47523D0041FE
:10025100542B434D47533D0041542B434D47443D9F
:10026100004F7065726174652053756363657373C4
:1002710066756C6C7921004F7065726174652066DA
:1002810061696C65642C74727920616761696E21A2
:01029100006C
:0D05CE00012300C101C100C104C103C1022D
:090532007BFF1200037FE87E0349
:10053B00D3EF9400EE94004015E4FDFC0DBD0001DB
:0E054B000CED647D4C70F5EF1F70E51E80E234
:01055900227F
:0E05C000C2B7120537D2B77FE87E0302053BB3
:10059E00759850438921758DFD43A890D28ED299BE
:0105AE00222A
:0805DC008F993099FDC29922AC
:100003001204F3FF600C1205DC740129F9E43AFAD7
:0C00130080EE7F0D1205DC7F0A0205DC88
:0300230002057D56
:10057D00C0E0C0D075D008309812E523C3946E50FA
:10058D000974712523F8A6990523C298D0D0D0E01F
:01059D00322B
:100292001205377A0279111205327A02791412059F
:1002A200347A0279181205347A027924120534E478
:1002B200F52374712523F8E4F60523E523B46EF2E1
:1002C200E4F5237A02793D1205327873E6B44F1CC5
:1002D20008E6B44B17C297E4F52374712523F8E4BA
:1002E200F60523E523B46EF2E4F52322C296E4F583
:1002F2002374712523F8E4F60523E523B46EF2E4B2
:05030200F52302029248
:10055A007876E6B4540808E6B44903D20022E4FFE8
:10056A00EFC39523500974712FF8E4F60F80F1E474
:02057A00F52367
:01057C00225C
:1005AF0030040D7876E6B4470708E6B45202D2035A
:0105BF002219
:10045100120537E4FF747F2FF8E6FE74242FF8A607
:10046100060FBF03F0E4FFEF90024793FE74542F91
:10047100F8A6060FBF08F07F08741C2FF8E6FE747B
:10048100542FF8A6060FBF0BF0E4F5237471252352
:10049100F8E4F60523E523B46EF2E4F523FB7A00D4
:0504A100795402000384
:10002600E4FF74BF2FF8E6FE74272FF8A6060FBF6D
:1000360019F0E539646F60030200EEE53A6470601A
:10004600030200EEE53B646560030200EEE53C64F6
:100056006E60030200EEE53D12050C009B31009E2A
:100066003200A13300A43400A73500AA3600AD370C
:1000760000B03800D13F00B34100B64200B943009A
:10008600BC4400BF4500C24600C54700C84800CB77
:100096004F000000EBC29422C2A622C2A322C28352
:1000A60022C2A322C28522C28622C28722C2B422CB
:1000B600C2B522C2B422C2A322C2A422C2A522C2AF
:1000C600A622C2A722E4F580F5A02285802D85A070
:1000D6002E752100852E22E522752200F521E52DBB
:1000E6004222D20122D20222E53964736003020160
:1000F60082E53A64686003020182E53B6475707CC0
:10010600E53C64747076E53D12050C014831014BFF
:1001160032014E33015134015435015736015A37F5
:10012600015D380160410163420166430169440192
:100136006C45016F4601724701754801785300000E
:10014600017FD29422D2A622D2A322D28322D284A3
:1001560022D28522D28622D28722D2B422D2B522B8
:10016600D2B422D2A322D2A422D2A522D2A622D2AD
:0E017600A7227580FF75A0FF22D20222D202BE
:010184002258
:10037B00E4FDFCFBFA7F0180027F00EF6036AF05E6
:10038B00E522AE21A807088005C333CE33CED8F9BA
:10039B00EE30E70874DF2BF87630800674DF2BF82D
:1003AB0076310DBD00010C0BBB00010AEB64104A4A
:1003BB0070C380C57F0F7E00E4FAFB7D0180027D58
:1003CB0000ED601E74DF2BF8E6FD74602FF8A605B8
:1003DB00EF1F70011E0BBB00010AEB64104A70DBB0
:0203EB0080DDB3
:0103ED0022ED
:1004A6001205371205377F887E1312053BE4FFEFEE
:1004B60090025993FE742F2FF8A6060FBF08F07FFF
:1004C60008741C2FF8E6FE742F2FF8A6060FBF0B34
:1004D600F0E4F52374712523F8E4F60523E523B447
:0D04E6006EF2E4F523FB7A00792F0200038B
:1003EE00E4FFEF90025093FE743B2FF8A6060FBF6A
:1003FE0008F07F08747F2FF8E6FE743B2FF8A606F0
:10040E000FBF18F07B007A00793B1200037F907EBD
:10041E000112053B2002173001077A0079601200A5
:10042E00037BFF7A027962120003C20180097BFF0F
:10043E007A0279781200037F1E7E0012053B7F1A26
:03044E000205DCC8
:100307001205C0D296D2977F107E2712053B1205A1
:100317009E12029212055A300012C293120451C261
:1003270000D2047F887E1312053BD293C2957F6467
:100337007E0012053BD2957F2C7E0112053B1205EC
:10034700AF3003D07FD07E0712053B120026120381
:100357007B1203EE1205371204A6C202E4F52374DA
:10036700712523F8E4F60523E523B46EF2E4F523BB
:04037700C20380A09D
:10019100020307E493A3F8E493A34003F68001F27A
:1001A10008DFF48029E493A3F85407240CC8C3336F
:1001B100C4540F4420C8834004F456800146F6DF3E
:1001C100E4800B01020408102040809005CEE47EFB
:1001D100019360BCA3FF543F30E509541FFEE49333
:1001E100A360010ECF54C025E060A840B8E493A3FA
:1001F100FAE493A3F8E493A3C8C582C8CAC583CA25
:10020100F0A3C8C582C8CAC583CADFE9DEE780BEDC
:0105DB00001F
:1004F300BB010689828A83E0225002E722BBFE0207
:09050300E32289828A83E4932239
:10050C00D083D082F8E4937012740193700DA3A37E
:10051C0093F8740193F5828883E473740293686092
:06052C00EFA3A3A380DF92
:00000001FF
